:020000040000FA
:1000000090050020751300000102000003020000AB
:1000100000000000000000000000000000000000E0
:1000200000000000000000000000000005020000C9
:1000300000000000000000000702000009020000AC
:0C0040000B02000081030000B903000067
:020000040000FA
:1002000070477047704770477047704700F0E2F8DA
:10021000B14C0020207002E000F00CF9207800289A
:10022000FAD000F0E3F8F7E70168C1700A0A8270BB
:100230000A0C4270090E0170704741780078000284
:10024000401880B27047F0B5002A08D00324134646
:100250002340551E032D03D20024002B12D1F0BDE4
:10026000A24300240D5D055505190E1977786F70AE
:10027000B778AF70F678EE70241DA242F2D109195A
:10028000002BECD00A780255012BE8D020184A78D0
:100290004270022BE3D089788170F0BDF0B584B054
:1002A00003460120002A2AD001900320801A0290E0
:1002B0000224E443A01A0390564200270097CA5D27
:1002C000DC5D94421DD10398C219121D1CD0CA19BD
:1002D000DC1960785578A84213D1F019801C13D02E
:1002E000A0789578A8420CD10298C0190CD0E0787B
:1002F000D278904205D13F1DF019E0D1019804B0A9
:10030000F0BD009804B0F0BD019804B0F0BDC04647
:1003100010B5002A21D0114B07E00C780470DC1CCA
:10032000401C491C1219140417D08C070CD0CC07A0
:10033000F3D1C407F1D194B2022CEED30C8804801F
:100340009C1C891C801CEDE78407F0D194B2042C1E
:10035000EDD310C910C01C46E4E710BDFCFF00003F
:10036000000B552801D30020704701207047C0467C
:10037000800A024941184842484170470000FEFF88
:100380000220C04309490A68D20704D109688907D5
:100390000BD5802101E0401C2021054A1368034051
:1003A0001360044802680A4002607047040200407B
:1003B00004010040183000400448016801229143C4
:1003C0000160034801681143016070470801004063
:1003D000000002400348802101600348FF210160C2
:1003E0007047C046100000401C000840B0B50F48E0
:1003F00002680F490B68002404600C600125AC07FB
:10040000256000BF00BF00BF00BF00BF2568012DF1
:1004100008D12568012D05D12568012D02D1256857
:10042000012DF3D002600B60B0BDC0460000064055
:1004300000100640F0B581B0274C207800283BD052
:1004400000F05EF8002835D0244C0025A580E08916
:1004500040BA608001206026214F009031463A4624
:1004600000F054FC00F028F9284631463A4600F0E6
:100470004DFC607B014684394A1E914102465A3A3E
:10048000531E9A41A5880A420CD1002D0AD100F0D2
:1004900023FC207C002801D100980002114900F0C3
:1004A00041FAA588104C605D00F016FC6019407898
:1004B00000F012FC01B0F0BD112000F0B3F90B20E8
:1004C0000A4900F02FFA0548002101708160207868
:1004D000401C207001B0F0BD8A030020780000208D
:1004E0003F1F00008A0200200F14000004140000C7
:1004F00080B50B20014900F015FA80BD04140000FE
:1005000070B500F049FB0446684D28732E7800F062
:1005100043FB6873FF2C14D1002E12D10009072869
:1005200054D8C04678440079400087440354626937
:10053000737C88A600F030FB697B0024102943D12E
:100540008DE000F029FBA87300F026FBE87300F0B3
:1005500023FB2874287B00280AD00C20A8806E205A
:1005600000F0BAFB0024204600F0B6FB204670BD28
:10057000687B2E2804D05C2802D0582800D092E056
:100580004B48042141608160C16801242143C1605E
:10059000032101600168090708D40168090705D42F
:1005A0000168090702D401680907F3D50168082228
:1005B0000A4302600168A1430160687B00F08CFB84
:1005C000287C3C4900F0FAFA204670BD697B002483
:1005D000102944D0F8E700F0DFFAA87300F0DCFA45
:1005E000E873A97B4140C8B2697B0024102936D04A
:1005F000EAE700F0D1FAE87300F0CEFA014628E00D
:1006000000F0CAFAA87300F0C7FAE87300F0C4FA61
:10061000E97B11E000F0C0FA287400F0BDFA297CF3
:100620004140687B16E000F0B7FAA87300F0B4FA16
:10063000287400F0B1FA297C4140A87B0AE000F060
:10064000ABFAE87300F0A8FA287400F0A5FA297C48
:100650004140E87B4840697B00241029B4D14140E7
:10066000FF29B1D128780028AED128460C3000F0FF
:1006700011FA01202870204670BD00F08DFAA87391
:1006800000F08AFAE87300F087FA287400F084FA20
:10069000297C4140EA7B4A40A87B5040697B00248A
:1006A0001029DCD090E7012070BDC0467800002002
:1006B000500008408A02002080B52948417B0A4644
:1006C0002E3A2E2A21D8C0467A44127952009744F5
:1006D00017232623232323232323232323232323F3
:1006E00023232323232323232323232323232323DA
:1006F00023232D23232323232323302336233C00AA
:100700004088184900F042FB80BD842923D0F0299D
:1007100002D100F0B3FC80BD0221818080BD017C4C
:10072000408800F0E3FB0F49088080BD00F008FB23
:1007300080BD027C40880B4900F0CAFB80BD027C72
:100740004088084900F012FB80BD027C40880549C2
:1007500000F046FB80BD017C024800F0FDFB80BD3F
:10076000780000208A02002010B50D4C607B014605
:1007700084394A1E914102465A3A531E9A410A420E
:100780000CD1A188002909D100F0A6FA207C00280C
:1007900001D101200002034900F0C4F810BDC04699
:1007A000780000208A020020B0B50446044D285C81
:1007B00000F092FA2819407800F08EFAB0BDC046D9
:1007C0000F1400000E4948608860CA680120024387
:1007D000CA6003220A600A68120708D40A6812076E
:1007E00005D40A68120702D40A681207F3D50A680A
:1007F000082313430B600A6882430A607047C046AF
:1008000050000840022805D0082805D0042806D149
:100810000A2002E0062000E0082001498880704795
:1008200078000020F0B511490B78002B1AD0012276
:10083000D21A5B4200240D196E78864213D0161925
:1008400010D0AF7887420ED01F19BF1C0AD0EF78A6
:10085000874208D0B61C05D02D79854203D0241DCF
:100860001D19E8D1F0BD02490860F0BD1D1400005B
:1008700010000840B0B5037829490C6820221443C1
:100880000C604B61CB68DB0708D1CB68DB0705D177
:10089000CB68DB0702D1CB68DB07F3D00C68DF2322
:1008A0001C400C6044780D6815430D604C61CC68A9
:1008B000E40708D1CC68E40705D1CC68E40702D18D
:1008C000CC68E407F3D00C681C400C6084780D6899
:1008D00015430D604C61CC68E40708D1CC68E4078F
:1008E00005D1CC68E40702D1CC68E407F3D00C68EA
:1008F0001C400C60C0780C6814430C604861C868E8
:10090000C00708D1C868C00705D1C868C00702D1B0
:10091000C868C007F3D0086818400860B0BDC0467A
:1009200000000840F0B582B000284ED003250346F1
:100930002B40441E564A032C009348D20024009EAC
:10094000002E42D00B5D15682020054315605361D1
:10095000D368DB0708D1D368DB0705D1D368DB0791
:1009600002D1D368DB07F3D01368DF252B40136077
:10097000012E2AD061184B78146804431460536127
:10098000D368DB0708D1D368DB0705D1D368DB0761
:1009900002D1D368DB07F3D013682B401360022E1B
:1009A00013D089781368034313605161D068C0077E
:1009B00008D1D068C00705D1D068C00702D1D0687F
:1009C000C007F3D010682840106002B0F0BD019558
:1009D000A843002405E013683B401360241D8442B3
:1009E000ADD00F5D13682026334313605761D36881
:1009F000DB0708D1D368DB0705D1D368DB0702D159
:100A0000D368DB07F3D01368DF273B401360012373
:100A10002343CB5C1568354315605361D368DB070E
:100A200008D1D368DB0705D1D368DB0702D1D368CF
:100A3000DB07F3D013683B40136002232343CB5CF6
:100A40001568354315605361D368DB0708D1D36857
:100A5000DB0705D1D368DB0702D1D368DB07F3D00E
:100A600013683B4013602346019D2B43CB5C156804
:100A7000354315605361D368DB07ACD1D368DB071E
:100A8000A9D1D368DB07A6D1D368DB07F3D0A2E7EF
:100A900000000840F0B581B000903D480378002B7D
:100AA0001CD00122D21A5B4200998C78002546198D
:100AB00071788C4214D0571910D0B1788C420FD075
:100AC0005919891C0AD0F1788C4209D0B91C05D07B
:100AD00031798C4204D02D1D5919E8D101B0F0BDF7
:100AE000009D28782B490B68202213430B60486136
:100AF000C868C00708D1C868C00705D1C868C00762
:100B000002D1C868C007F3D00868DF231840086026
:100B100068780C6814430C604861C868C00708D145
:100B2000C868C00705D1C868C00702D1C868C00737
:100B3000F3D0086818400860A8780C6814430C606B
:100B40004861C868C00708D1C868C00705D1C8682F
:100B5000C00702D1C868C007F3D008681840086011
:100B6000E8780C6814430C604861C868C00708D175
:100B7000C868C00705D1C868C00702D1C868C007E7
:100B8000F3D0086818400860A878086101B0F0BD8B
:100B90001D1400000000084007480168890708D4B8
:100BA0000168890705D40168890702D401688907AB
:100BB000F3D58068C0B270470C000840F0B581B032
:100BC00000283CD0032503462B40421E94B2414AE4
:100BD000032C009335D20024009D002D2FD01068E7
:100BE000800708D41068800705D41068800702D4F5
:100BF00010688007F3D590680855012D1FD0601C40
:100C000013689B0708D413689B0705D413689B07D8
:100C100002D413689B07F3D593680B54022D0ED0B2
:100C2000A01C13689B0708D413689B0705D413689E
:100C30009B0702D413689B07F3D592680A5401B04E
:100C4000F0BDA8430024264606E09368CB55241D3A
:100C5000361DB3B28342BFD01768BF0708D41768E8
:100C6000BF0705D41768BF0702D41768BF07F3D5BD
:100C700097680F550127274313689B0708D413680B
:100C80009B0705D413689B0702D413689B07F3D511
:100C90009368CB550227274313689B0708D4136832
:100CA0009B0705D413689B0702D413689B07F3D5F1
:100CB0009368CB5527462F4313689B07C5D4136809
:100CC0009B07C2D413689B07BFD413689B07F3D557
:100CD000BBE7C0460C0008400B490A6820231343B9
:100CE0000B604861C868C00708D1C868C00705D153
:100CF000C868C00702D1C868C007F3D00868DF22FF
:100D000002400A607047C046000008400B4B0128B3
:100D10000ED19A605A601961D86801210843D860E1
:100D20001868F92202401A60186808431860704772
:100D30001968FE20084018607047C04650000840FF
:100D400006480079002803D0054804210180704737
:100D500004480088000404490860704784000020AB
:100D60007C0000207A0000208000002080B50B4627
:100D7000054909680918002A01D101200202184614
:100D8000FFF761FA80BDC0468000002070B50546BF
:100D9000104806680846FFF750FA04460E480079E6
:100DA00002280FD1002C0CD075190026284600F01F
:100DB0007FF901280AD1012040022D18761CA64295
:100DC000F4D370BD05480421018070BDFFF71AFD02
:100DD00070BDC04680000020840000207C00002000
:100DE000F0B587B014460191074635480168880F71
:100DF000421E9041CD196A0F032A01D3002200E060
:100E0000012207235B07C918490A152948D3104056
:100E100046D12846FFF7A4FA002804D12846FFF758
:100E2000A7FA002847D0002C38D0264805400120DA
:100E3000460200212448009605910695294632462F
:100E4000FFF701FA721E3A4090B2A1B24118B142C6
:100E5000049400D3B41A03920294A7B20599CEB2B7
:100E600001998919184C20183A46FFF7ECF9069DAC
:100E7000284600F01DF9012819D12846214600F026
:100E8000A9F9012813D1F119009EAD190398029A0E
:100E90001718049CA41A20040B48CDD107B0F0BD4C
:100EA000284601992246FFF733FA07B0F0BDFFF755
:100EB000A9FC07B0F0BD05480821018007B0F0BDCE
:100EC0008000002000FEFFFF890000207C00002041
:100ED00080B5054B1B68181800F016F9012801D0E1
:100EE000FFF790FC80BDC04680000020B0B5194AD5
:100EF00000235360002920D003240C404B1E002CFB
:100F00000ED005781560012C04D1401C1946032B26
:100F100013D307E045781560022C14D1891E801C7C
:100F2000032B0AD30378136043781360837813602C
:100F3000C3781360001D091FF4D110681168000206
:100F4000401880B2B0BD84781460C91EC01C032B49
:100F5000F3D3E7E700100440F0B581B0464B1A46E2
:100F6000083A15680127BD431560002900D13902F0
:100F700003260E404D1E002E38D000971F68FF0735
:100F800008D11F68FF0705D11F68FF0702D11F683E
:100F9000FF07F3D01F1F3C680470012E02D1401CD4
:100FA000294622E01C68E40708D11C68E40705D143
:100FB0001C68E40702D11C68E407F3D03C68447065
:100FC000022E02D1891E801C0FE01C68E40708D1A4
:100FD0001C68E40705D11C68E40702D11C68E4071B
:100FE000F3D03C688470C91EC01C009FACB2032CB7
:100FF0000AD210683843106001B0F0BD2C68C4708C
:10100000001D091F0C04F4D01C68E40708D11C68FB
:10101000E40705D11C68E40702D11C68E407F3D09B
:101020001D1F2C6804701C68E40708D11C68E407C5
:1010300005D11C68E40702D11C68E407F3D02C68D2
:1010400044701C68E40708D11C68E40705D11C68DB
:10105000E40702D11C68E407F3D02C6884701C6894
:10106000E407CBD11C68E407C8D11C68E407C5D1EC
:101070001C68E407F3D0C1E70850064010B50749E3
:1010800000204860064C2080086000F011F820889D
:101090000449782200F038F810BDC0460401004031
:1010A0007A00002000000020BFF34F8F7047704788
:1010B00014491122CA6055224A60AA228A60BFF3ED
:1010C0004F8F7047FF2202700868C00708D1086878
:1010D000C00705D10868C00702D10868C007F3D06F
:1010E0000A68012002400A600B680A689B0704D462
:1010F000520705D50A68042000E0022002400A6079
:101100007047C0460000024070B5002A21D000247C
:10111000164B0125DD60AA265E6055269E60BFF352
:101120004F8F70470E5D06551E68F60708D11E6882
:10113000F60705D11E68F60702D11E68F607F3D040
:101140001E682E401E601D68AD0708D4641C9442C2
:10115000DFD1FFF7A3F8002806D0012070BD196881
:1011600002200140196070BD042070BD00000240E3
:10117000B0B5174B19625A624124DC60AA245C6046
:1011800055249C60BFF34F8F7047FF2404701C6888
:10119000E40708D11C68E40705D11C68E40702D104
:1011A0001C68E407F3D01D68012425401D601D68FC
:1011B000AD0706D4FFF772F8002800D104242046BA
:1011C000B0BD18680224204018602046B0BDC0465B
:1011D00000000240F0B587B00546644E64483062B6
:1011E0008020706241200690F060AA200590706017
:1011F00055200490B060BFF34F8F7047FF222A70D4
:101200003068C00708D13068C00705D13068C00712
:1012100002D13068C007F3D0306801210840306047
:101220003068800700D592E002920391504C8027ED
:10123000284621463A46FFF731F80421002800D11C
:1012400089E001918034346277620698F0600598F5
:1012500070600498B060BFF34F8F70470298E855F4
:10126000284680303268D20708D13268D20705D1CB
:101270003268D20702D13268D207F3D03268039BBA
:101280001A4032603268920761D4802721463A467C
:10129000FFF704F8002861D0039A100234490918B6
:1012A00031627762069BF360059B7360049BB360B9
:1012B000BFF34F8F7047029B2B542D183068C00727
:1012C00008D13068C00705D13068C00702D1306846
:1012D000C007F3D03068104030603068800736D4E3
:1012E000802728463A46FEF7D9FF0028019932D0D8
:1012F0000320C0011E490918316277620698F06028
:10130000059870600498B060BFF34F8F70470298E3
:10131000E85580353068C00708D13068C00705D16E
:101320003068C00702D13068C007F3D03068039A34
:10133000104030603068800709D480222846FEF7CC
:10134000ADFF00280ED00399084607B0F0BD306805
:10135000022108403060084607B0F0BD01990846F8
:1013600007B0F0BD0421084607B0F0BD0000024000
:10137000890000201FB4194819491A4B1A4C194BFF
:10138000994210D099420ED0EFF3008204B4025972
:101390000A51001D091D04BC82F30088F2D11349D3
:1013A0000A4082F300881249124A891A0E4A891AA1
:1013B0000D4A0D4C8B4209D0EFF3008001B41A5155
:1013C0001B1D01BC80F30088F4D11FBC0A480B49E7
:1013D0000160054880F31088094800474014000068
:1013E0000000002078000020000000000002000142
:1013F000900500200002000000E100E0FFFFFFFF79
:101400000D0200003B18969100340A0100900090F4
:10141000006D006C0065016A0065046E000B11121E
:101420001318919293949596970000004014000031
:10143000000000207800000078000020180500005F
:10144000A811002045000000590000005B000000CA
:10145000000000000000000000000000000000008C
:101460000000000000000000000000005D0000001F
:1014700000000000000000005F00000061000000AC
:101480005543050007480178074A914202D10748B1
:101490000749016007480047704770477047704729
:1014A000704700BF00440500A500000008ED00E003
:0814B000002C0500B942050003
:0400000500000000F7
:00000001FF
